:020000040000FA
:0400000080313728EC
:100008007E1480312000901E35282100901E35284E
:100018007A080319352808307B0203182F28043082
:1000280022008C0620308E060C192728F1012000AA
:10003800A51F2028F101F10A710C2200031C8C1065
:1000480003188C14332803102000A50D0130F0008C
:100058007008FB073328FB01FA0122008E122000EA
:1000680090127E10090080313928FB017E10200093
:1000780084319B2CF600182C3F308531A92580311E
:1000880048308531A925803148308531A92580310E
:1000980048308531A92580313F308531A925803107
:1000A80000308531A92508007F308531A9258031A8
:1000B80049308531A925803149308531A9258031DC
:1000C80049308531A925803136308531A9258031DF
:1000D80000308531A92508003E308531A9258031B9
:1000E80041308531A925803141308531A9258031BC
:1000F80041308531A925803122308531A9258031CB
:1001080000308531A92508007F308531A925803147
:1001180041308531A925803141308531A92580318B
:1001280041308531A92580313E308531A92580317E
:1001380000308531A92508007F308531A925803117
:1001480049308531A925803149308531A92580314B
:1001580041308531A925803141308531A92580314B
:1001680000308531A92508007F308531A9258031E7
:1001780050308531A925803150308531A92580310D
:1001880040308531A925803140308531A92580311D
:1001980000308531A92508003E308531A9258031F8
:1001A80041308531A925803149308531A9258031F3
:1001B80049308531A92580312E308531A9258031F6
:1001C80000308531A92508007F308531A925803187
:1001D80008308531A925803108308531A92580313D
:1001E80008308531A92580317F308531A9258031B6
:1001F80000308531A925080000308531A9258031D6
:1002080041308531A92580317F308531A92580315C
:1002180041308531A925803100308531A9258031CB
:1002280000308531A925080006308531A92580319F
:1002380041308531A925803141308531A92580316A
:1002480041308531A92580317E308531A92580311D
:1002580000308531A92508007F308531A9258031F6
:1002680008308531A925803114308531A9258031A0
:1002780022308531A925803141308531A925803149
:1002880000308531A92508007F308531A9258031C6
:1002980001308531A925803101308531A92580318A
:1002A80001308531A925803101308531A92580317A
:1002B80000308531A92508007F308531A925803196
:1002C80020308531A925803110308531A92580312C
:1002D80020308531A92580317F308531A9258031AD
:1002E80000308531A92508007F308531A925803166
:1002F80010308531A925803108308531A925803114
:1003080004308531A92580317F308531A925803198
:1003180000308531A92508003E308531A925803176
:1003280041308531A925803141308531A925803179
:1003380041308531A92580313E308531A92580316C
:1003480000308531A92508007F308531A925803105
:1003580048308531A925803148308531A92580313B
:1003680048308531A925803130308531A925803143
:1003780000308531A92508003E308531A925803116
:1003880041308531A925803141308531A925803119
:1003980042308531A92580313D308531A92580310C
:1003A80000308531A92508007F308531A9258031A5
:1003B80048308531A925803148308531A9258031DB
:1003C8004C308531A925803133308531A9258031DC
:1003D80000308531A925080032308531A9258031C2
:1003E80049308531A925803149308531A9258031A9
:1003F80049308531A925803126308531A9258031BC
:1004080000308531A925080040308531A925803183
:1004180040308531A92580317F308531A92580314B
:1004280040308531A925803140308531A92580317A
:1004380000308531A92508007E308531A925803115
:1004480001308531A925803101308531A9258031D8
:1004580001308531A92580317E308531A92580314B
:1004680000308531A925080070308531A9258031F3
:100478000C308531A925803103308531A92580319B
:100488000C308531A925803170308531A92580311E
:1004980000308531A92508007C308531A9258031B7
:1004A80003308531A92580311C308531A92580315B
:1004B80003308531A92580317C308531A9258031EB
:1004C80000308531A925080063308531A9258031A0
:1004D80014308531A925803108308531A92580312E
:1004E80014308531A925803163308531A9258031C3
:1004F80000308531A925080009308531A9258031CA
:1005080012308531A92580310E308531A9258031F9
:1005180009308531A925803112308531A9258031EE
:1005280000308531A925080060308531A925803142
:1005380010308531A92580310F308531A9258031CA
:1005480010308531A925803160308531A925803169
:1005580000308531A925080043308531A92580312F
:1005680045308531A925803149308531A92580312B
:1005780051308531A925803161308531A9258031F7
:1005880000308531A92508003E308531A925803104
:1005980051308531A925803149308531A9258031EF
:1005A80045308531A92580313E308531A9258031F6
:1005B80000308531A925080000308531A925803112
:1005C80021308531A92580317F308531A9258031B9
:1005D80001308531A925803100308531A925803148
:1005E80000308531A925080033308531A9258031AF
:1005F80045308531A925803149308531A92580319B
:1006080049308531A925803131308531A92580319E
:1006180000308531A925080022308531A92580318F
:1006280041308531A925803149308531A92580316E
:1006380049308531A925803136308531A925803169
:1006480000308531A925080078308531A925803109
:1006580008308531A925803108308531A9258031B8
:1006680008308531A92580317F308531A925803131
:1006780000308531A92508007A308531A9258031D7
:1006880049308531A925803149308531A925803106
:1006980049308531A925803146308531A9258031F9
:1006A80000308531A92508003E308531A9258031E3
:1006B80049308531A925803149308531A9258031D6
:1006C80049308531A925803126308531A9258031E9
:1006D80000308531A925080060308531A925803191
:1006E80041308531A925803146308531A9258031B1
:1006F80058308531A925803160308531A925803170
:1007080000308531A925080036308531A92580318A
:1007180049308531A925803149308531A925803175
:1007280049308531A925803136308531A925803178
:1007380000308531A925080032308531A92580315E
:1007480049308531A925803149308531A925803145
:1007580049308531A92580313E308531A925803140
:1007680000308531A925080000308531A925803160
:1007780000308531A925803100308531A9258031A7
:1007880000308531A925803100308531A925803197
:1007980000308531A925080000308531A925803130
:1007A80000308531A925803124308531A925803153
:1007B80000308531A925803100308531A925803167
:1007C80000308531A925080000308531A925803100
:1007D80000308531A925803101308531A925803146
:1007E80000308531A925803100308531A925803137
:1007F80000308531A9250800FF308531A9258031D1
:10080800FF308531A9258031FF308531A925803118
:10081800FF308531A9258031FF308531A925803108
:1008280000308531A92508007608F400F50175081F
:10083800003A0319202C002C7408203A0319B82B0D
:100848000E3A0319E82B1E3A0319C82A013A03196C
:10085800E02A033A0319F82A013A0319102B073A38
:100868000319282B013A0319402B033A0319582B73
:10087800013A0319702B0F3A0319882B013A03190F
:10088800A02B033A0319D02B7B3A03194028033ACB
:1008980003195828013A03197028073A03198828B8
:1008A800013A0319A028033A0319B828013A031991
:1008B800D0280F3A0319E828013A03190029033A06
:1008C80003191829013A03193029073A0319482945
:1008D800013A03196029033A03197829013A0319DF
:1008E80090291F3A0319A829013A0319C029033A84
:1008F8000319D829013A0319F029073A0319082AD4
:10090800013A0319202A033A0319382A013A03192C
:10091800502A0F3A0319682A013A0319982A033A08
:100928000319B02A223A0319802A002C08006030E3
:100938003200990003309F00D93021008C00C83064
:100948008E0023008C018E018B170B172100901647
:100958002000971795014030A40024089806BF305E
:10096800960022008C140C150E108E140E150E16FF
:100978008C1685315525843185312F258431F40134
:100988000330853198258431F4010230853198256A
:100998008431FB302000A0008530A1000F30A20078
:1009A8000030A300853179258431F4010230853186
:1009B80098258431EB302000A0008530A1000F304D
:1009C800A2000030A300853179258431F40102307A
:1009D800853198258431DB302000A0008530A100C6
:1009E8000F30A2000030A300853179258431F4014D
:1009F8000230853198258431CB302000A000853025
:100A0800A1000F30A2000030A30085317925843180
:100A1800F4010230853198258431DB302000A000B4
:100A28008530A1000F30A2000030A3008531792560
:100A38008431F4010230853198258431EB3020006F
:100A4800A0008530A1000F30A2000030A30085313E
:100A580079258431C82CF6010330F4007408F600B7
:100A68007608B03E8531BA25853110308531BA25F2
:100A7800853100308531BA258531F5010030853161
:100A8800A92585310130F4007408F5078430750212
:100A9800031C422DFF30F4007408F607F61B08000B
:100AA800342DAE308531BA258531A0308531BA254F
:100AB8008531C0308531BA258531A2308531BA25D6
:100AC80085312F308531BA25853121308531BA25D8
:100AD800853181308531BA25853120308531BA2577
:100AE8008531AF308531BA250800F801F901790858
:100AF800803AF70020002308803A7702031D862DEC
:100B080022087802031808002000200878078400CB
:100B18002108793D8500000880313E20853101306B
:100B2800F8070030F93D7B2DF5007508B03E85319A
:100B3800BA25853174080F39103E8531BA258531BB
:100B480074080F398531BA250800F30022000E1108
:100B58000E147308F20072082000A500FA01FA0AC0
:100B68007A08031DB42D22000E110800F30022009C
:100B78000E110E107308F20072082000A500FA0189
:100B8800FA0A7A08031DC52D22000E110800203428
:100B980020342034203420344C344F34413444340D
:100BA80049344E344734203420342034003420343F
:100BB80020342034203420344C344F3441344434ED
:100BC80049344E3447342E34203420340034203411
:100BD80020342034203420344C344F3441344434CD
:100BE80049344E3447342E342E34203400342034E3
:100BF80020342034203420344C344F3441344434AD
:0E0C080049344E3447342E342E342E3400340A
:020000040001F9
:08000E00ECFFF3FFFFFFFFFF11
:00000001FF
