:020000040000FA
:0400000080313428EF
:100008007E1480312000901E32282100901E322854
:1000180078080319322808307A0203182C2804308B
:1000280022008C0620308E060C192528F101F91FB4
:100038001F28F101F10A710C031C8C1003188C1491
:1000480030280310F90D0130F0007008FA07302845
:10005800FA01F80122008E12200090127E10090089
:1000680080313628FA017E10200080313B2860302C
:100078003200990003309F00D93021008C00C8302D
:100088008E0023008C018E018B170B172100901610
:100098002000971795014030F70077089806BF3081
:1000A800960022008C140C150E108E140E150E16C8
:1000B8008C1680318A208031803164208031632819
:1000C800F6010330F4007408F6007608B03E80317B
:1000D800BE20803110308031BE2080310030803128
:1000E800BE208031F50100308031AE2080310130F2
:1000F800F4007408F50784307502031C7728FF3074
:10010800F4007408F607F61B08006928AE30803141
:10011800BE208031A0308031BE208031C030803197
:10012800BE208031A2308031BE2080312F30803116
:10013800BE20803121308031BE2080318130803135
:10014800BE20803120308031BE208031AF308031F8
:10015800BE200800F30022000E110E147308F200EE
:100168007208F900F801F80A7808031DB828220077
:100178000E110800F30022000E110E107308F20091
:100188007208F900F801F80A7808031DC828220047
:040198000E1108003C
:020000040001F9
:08000E00ECFFF3FFFFFFFFFF11
:00000001FF
